:100FB60044697374616E6369613A00256400202098
:100FC6002000636D002020202020202020202020CB
:100FD60020202020200043415554494F4E21000037
:050FE600000000000006
:04114F00024A000050
:1011190075A40475D90075A90275E24043A5042296
:0D11370075C800538EDF75CD0075CC002209
:100B0300750A00750B00121119121137C292D29097
:100B130075CD0075CC007F4E120EF38E088F097FC2
:100B23004E121144751D017B007D017F4E120FEBA8
:100B33007B007D007F4E120F3C7BFF7A0F79B67FDF
:040B43004E120CDA68
:100B47007BFF7A0F79E5C003C002C0017B007A0002
:100B5700790CA801AC027D00D001D002D0037E0041
:100B67007F061205D2C292C290209115C3E50B945D
:100B770088E50A9413500A050BE50B7002050A80F5
:100B8700E8750A00750B00D2CA2091FDC2CAD2903F
:100B9700AFCD7E00EF754B00F54AAFCCEF254BF597
:100BA7004BEE354AF54AFCAD4BE41201AE7B007AB9
:100BB700007900783F1200031201E78E4A8F4BAC91
:100BC7004AAD4BE41201AE7B967A43790B783D121E
:100BD70000037B007A007900784012010C1201E7CC
:100BE7008E4A8F4B75CD0075CC007B007A00790C4F
:100BF700C003C002C0017BFF7A0F79C18B258A260B
:100C07008927854A28854B29D001D002D0031206AF
:100C1700F0C3E54B942CE54A94014003020CA675FA
:100C27001D017B007D017F4E120FEB7B007D0A7F4C
:100C37004E120F3C7BFF7A0F79C47F4E120CDA7588
:100C47001D017B007D017F4E120FEB7B007D0A7F2C
:100C57004E120F3C7B007A00790C7F4E120CDA752E
:100C67001D017B007D017F4E120FEB7B007D0E7F08
:100C77004E120F3C7BFF7A0F79C87F4E120CDA7544
:100C87001D017B007D017F4E120FEB7B017D047FF1
:100C97004E120F3C7BFF7A0F79CB7F4E120CDAC3D3
:100CA700E54B9414E54A94004003020B47D2927532
:100CB7001D017B007D017F4E120FEB7B017D047FC1
:0F0CC7004E120F3C7BFF7A0F79DC7F4E120CDA56
:030CD600020B47C7
:010CD90022F8
:1010B400754C00754D00C3E54D9414E54C940050F7
:0B10C4000A054DE54D7002054C80EB65
:0110CF0022FE
:1010EC00D282D2831210B41210B4C2821210B41273
:0B10FC0010B4C2831210B41210B42212
:10110700C283C2821210B4D2831210B4D2821210D8
:02111700B42200
:020F7E008F4E94
:100F8000C283754F00E54FC394085027E54EC41344
:100F900013135401FF24FF92821210B41210B4D222
:100FA000831210B41210B4C283E54E25E0F54E054D
:050FB0004F80D27F001C
:010FB5002219
:10101F00755100755000E550C39408501DE55125DA
:10102F00E0F551C283D2831210B4A282E433FF429F
:0C103F0051C2831210B4055080DCAF5188
:01104B002282
:1010D000C283D2831210B41210B41210B4A282E4EC
:0B10E00033FFF51FC2831210B4AF1FD6
:0110EB0022E2
:101073008F54C283D2831210B41210B4E554C41334
:1010830013135401FF24FF9282D2831210B4C2833C
:01109300223A
:04115300025200083C
:041094008E3E8F3FBE
:10109800754000754100C3E541953FE540953E50D8
:0B10A8000A0541E5417002054080EBA5
:0110B300221A
:040DCD008F428D4381
:100DD1001210ECAF42120F7E1210D08F45AF53E5C7
:100DE1004354F0FE4FF544FF120F7E1210D08F4591
:100DF1007FF47E01121094434404AF44120F7E121B
:100E010010D08F457FF47E011210945344FBAF4400
:100E1100120F7E1210D08F457F887E13121094AF6F
:100E210053E543C454F0FE4FF544FF120F7E1210F8
:100E3100D08F457FF47E01121094434404AF4412D5
:100E41000F7E1210D08F457FF47E0112109453440F
:100E5100FBAF44120F7E1210D08F457F887E131294
:050E61001094121107BE
:010E66002269
:080CDA008F128B138A14891597
:100CE200751700751800AE02AF01EF4E7004FE7F5B
:100CF20001221210ECAF12120F7E1210D08F19C304
:100D0200E5189410E517648094804003020DC6AB89
:100D120013AA14A9151205F8FF7003020DC61205D5
:100D2200F8FF54F0FFAE53EE4401FE4FF516FF12EA
:100D32000F7E1210D08F197FF47E01121094431689
:100D420004AF16120F7E1210D08F197FF47E01129B
:100D520010945316FBAF16120F7E1210D08F197F0C
:100D6200F47E01121094AB13AA14A9151205F8FF10
:100D7200C454F0FFAE53EE4401FE4FF516FF120FBE
:100D82007E1210D08F19431604AF16120F7E121066
:100D9200D08F197FF47E011210945316FBAF1612F6
:100DA2000F7E1210D08F197F887E13121094740157
:100DB2002515F515E43514F5140518E51870020526
:0A0DC20017020D01121107E4FEFFF5
:010DCC002204
:100EF3008F551210ECAF55120F7E1210D01211073E
:100F03007FE87E031210947552007553087D02AF7B
:100F130055120DCD7D28AF55120DCD7D0CAF551259
:100F23000DCD7D06AF55120DCD7D80AF55120DCD84
:090F3300AF55121144E4FEFF2247
:0B1144008F567D01120DCDE4FEFF224E
:060F3C008F468D478B4833
:100F4200E547C394004015E547D3940F500EE5489A
:100F5200C394004007E548D3940140057E007F0119
:100F620022E54870047F8080027FC08F49E54742B6
:0B0F720049AD49AF46120DCDE4FEFF73
:010F7D002251
:060FEB008F1A8D1B8B1C08
:100FF100751E0CE51B60067E007F0880047E007F65
:10100100008E528F53E51C6003431E02E51D6003F1
:0D101100431E01AD1EAF1A120DCDE4FEFF0F
:01101E0022AF
:0E1129008F577552007553007D08120DCD22B0
:10000300EC4D6011E8497017ED33EC3304600DE4F7
:10001300FCFFFEFD22E933E8330470F802025312B9
:10002300021E58046009E4CC2481500628500902BA
:10003300025D28400302025AC0E0EB4A7044B980D3
:1000430006D0E0FB020249EF4E701CBD8008EBFFB7
:10005300EAFEE9FD80EBE98DF0A4FEE5F00200EC99
:10006300E9CDF9EAFEEBFFEF89F0A4FCE5F0CE89D8
:10007300F0A42EFFE435F0CD89F0A42DFEE435F095
:100083008067EF4E7005BD80D780C3EF8BF0A4ACC3
:10009300F0EE8BF0A42CFCE435F0F8EF8AF0A42CFE
:1000A300E5F038FCE433CB8DF0A42CFCE5F03BF811
:1000B300EE8AF0A42CFCE5F038F8E433CF89F0A401
:1000C3002CFCE5F038CF3400CE89F0A42FFFE5F007
:1000D3003EFEE433C98DF0A42EFEE5F039CD8AF05F
:1000E300A42FFFE5F03EFEE43DFD33D0E0FB5007D7
:1000F3000BBB000F02025DEC2CFCEF33FFEE33FE73
:06010300ED33FD020235A0
:1001090002025DEC5D046005E859047003020253C4
:1001190012021E580460F6EC4860F2EC7004FDFE11
:10012900FF22C860DB2481C85009C39860025006C9
:1001390002025A9850CAF582E9294B4A7005AB82E6
:1001490002024975F0007C1A7880C3EF9BEE9AEDA4
:1001590099400DC3EF9BFFEE9AFEED99FDE842F041
:10016900DC23ACF0D0E0FFD0E0FED0E0FDAB822094
:10017900E7101BEB60BAEC2CFCEF33FFEE33FEED1E
:1001890033FD020235E803F830E705C0F075F000E9
:10019900EF2FFFEE33FEED33FD40B830E7C280AA02
:1001A90075F020800E75F010800575F0087D007ED1
:1001B900007F003392D530D503120650EC3340103E
:1001C900EF33FFEE33FEED33FDEC33FCD5F0ED22DA
:0E01D900E5F0247EA2D513CC92E7CDCEFF2216
:1001E700EDD2E7CD33EC3392D524814006E4FFFE10
:1001F700FDFC22FCE4CFCECDCC24E0501174FF806F
:10020700EDC3CC13CCCD13CDCE13CECF13CF04700B
:07021700F030D5DE020650B5
:10069400E5392425F8E60539227822300702782541
:1006A400E475F00112065E0205F82000EB7F2ED2FD
:1006B400008018EF540F2490D43440D4FF30040B3E
:1006C400EF24BFB41A0050032461FFE53A60021519
:1006D4003A053DE53D7002053C30070D7822E4758E
:1006E400F00112065EEF02063E02104C7403D207BC
:1006F4008003E4C207F5398B228A238924E4F53A7E
:10070400F53CF53DE53A60077F201206CF80F5758C
:100714003BFFC201C200C202C203C205C206C20834
:1007240012069DFF700D3007057F001206E0AF3DF5
:10073400AE3C22B4255FC2D5C20412069DFF24D06C
:10074400B40A00501A75F00A783A30D50508B6FF95
:100754000106C6A426F620D5047002D20380D9244B
:10076400CFB41A00EF5004C2E5D2040209CDD2017D
:1007740080C6D20080C0D20280BCD2D580BAD20555
:1007840080B47F201206CF2002077401B53A0040DE
:10079400F1120694FF1206CF020708D208D206808F
:1007A40095120694FB120694FA120694F94A4B70B9
:1007B4000679C47A0A7BFF20022EE53A602A7E007D
:1007C4008E8275830012061160060EEE653B70F092
:1007D400C2D5EBC0E0EAC0E0E9C0E0EE120A2DD0D9
:1007E400E0F9D0E0FAD0E0FB1205F8FF60AAEBC014
:1007F400E0EAC0E0E9C0E01206CFD0E02401F9D07D
:10080400E03400FAD0E0FBE53B0460DCD53BD98062
:1008140087D20280A2120A1060F7E53B700104122D
:100824000268A93B600DE53B600914F53B120AB769
:10083400EF60F3EA30E702F404C3995077EAF42551
:100844003B0430E701E404F53B800D120A1060C15B
:10085400EA053B253B120268EA7838F630E701E402
:10086400253B04D53B0420050114120A2DE4C0E005
:10087400120AB77838E6601320E70714F61206B7B1
:10088400802204F6D0E014C0E07F001206B7E53BF6
:1008940060071206AE153B800B3005031206AED07E
:1008A400E0020708D0E00480C5120A1060A0E53B0E
:1008B400041202687838EAF6E53B20050260010478
:0508C4002404120A2DBE
:1008C90074FF04C0E0120AB71206B7E53B2005021F
:1008D90060031206AED0E0B53BE87F451206C17849
:1008E90038E67F2B30E7047F2DF404C0E01206CFF1
:1008F900D0E075F00A84C0F01206B8D0E01206B84C
:10090900020708791080027908C206C2088008D255
:10091900D5790A8004790AC2D5E53B047002F53B12
:10092900E4FAFDFEFF120694FC7B0820011312066F
:1009390094FD7B1030000A120694FE120694FF7B88
:1009490020EC3382D592D55013C3E43000069FFFC3
:10095900E49EFEE42001039DFDE49CFCE4CBF8C287
:1009690001EC700CCFCECDCCE824F8F870F38017E9
:10097900C3EF33FFEE33FEED33FDEC33FCEB33FB1A
:10098900994002FB0FD8E9EB300105F8D0E0C448E3
:10099900B201C0E00AEC4D4E4F78207B0070C2EAEC
:1009A900B53B0040BCC0E0120A2FD0F0D0E02001D6
:1009B90004C4C0E0C4B201C0F01206B8D0F0D5F04A
:1009C900EB02070812066E07A553090C5807764C67
:1009D90007724209104F091844091849078B43093E
:1009E9001E55084F4608AD450819470AE450077ACD
:1009F9002D077E2E07A12B078223079F200ACD2AC8
:100A0900073A4800000799E53BB4FF03753B061216
:100A19000694FC120694FD120694FE120694FF78C1
:100A290031020297790AA2D5200314300509B910B9
:100A3900020404B9080104A2D520060250010420C9
:100A490002689202B53A005034C0E07F20300319A1
:100A59007F30A20272067205500F120A86C202C2C4
:100A690006C205C2087F30800F300503E9C0E012D5
:100A790006CF300503D0E0F9D0E0B53ACC30051700
:100A89007F30B9100C1206CF7F583004077F788069
:100A990003B908031206CF3002057F2D0206CF7F66
:100AA900202008F87F2B2006F322920280CF7F00B6
:100AB900B4070050052431F8E6FF22286E756C6CE6
:100AC9002900D2011206943001F8C201783A30D5D2
:100AD9000108F602073A2D50434958120694240397
:100AE900B405004001E4900ADF931206C0743A127B
:0A0AF90006C0D203753A0402090C8E
:10021E00E9D2E7C933E833F892D5EDD2E7CD33EC26
:07022E0033FC5002B2D5229F
:10023500EC30E7100FBF000C0EBE00080DBD00042A
:100245000BEB6014A2D5EB13FCED92E7FD2274FFD6
:10025500FCFDFEFF22E480F8A2D574FF13FC7D802F
:03026500E480EF43
:10026800F920E72824F950037907E4F42402FB185D
:10027800DBFDE624FB5014E9600DE4F618E604F60D
:0F028800B40A08E4F6D9F57401F60A22C2D522A9
:10029700ED33EC3392D5FA602AB4FF33EDC2E77B36
:1002A700FF60067A0279BCE4227A0279C520D50478
:1002B7007A0279C0224E614E002B494E46002D49E5
:1002C7004E4600E47A08F608DAFC7B00740722E859
:1002D700C0E0ECC0E0EDC0E0EEC0E0EFC0E0EA75E2
:1002E700F010A4CAABF075F04DA42BFBE435F0FC7D
:1002F700EA2410FAEB34C5FBEC34D9FCEDC2E7FF76
:1003070075F056A4F42411C5F0F434C58FF0A42A6F
:10031700E5F03BE43CF620E7141204C2D0E0FFD03E
:10032700E0FED0E0FDD0E0FC12010C8014F40412D2
:1003370004C2D0E0FFD0E0FED0E0FDD0E0FC120028
:1003470003D0E0F8E6FAEDD2E7CD33EC332482FBB5
:10035700E4C3CF33CFCE33CECD33CD33DBF37B07FF
:1003670075F00A846004F6081B0AE5F0F6088FF0BA
:10037700740AA4FFACF08EF0740AA42CFEACF05003
:10038700010C8DF0740AA42CFDE435F0F608DBDED1
:03039700740722C6
:10039A00020253E86480F8E933E83360110460F03C
:1003AA00ED33EC337009E8FCE9FDEAFEEBFF2204C9
:1003BA0060DED3EB9FEA9EE99DE8C2E78CF0C2F7C4
:1003CA0095F0400CE8CCF8E9CDF9EACEFAEBCFFB90
:1003DA0012021E85D0F05804700320D5B3E80470C9
:1003EA00075002B2D502025D92D5EC0460F7E4CC64
:1003FA00C0E0C398F8603B94186008400DD0E0FB59
:10040A00020235E4FBFAC9FC8028E830E406E4C9B4
:10041A00FBE4CAFCE830E305E4C9CACBFCE85407AC
:10042A006010F8C3E913F9EA13FAEB13FBEC13FCB7
:10043A00D8F130F52FC3E49CFCEF9BFFEE9AFEED5A
:10044A0099FDD0E0FBEF4E4D4C701222DB03020205
:10045A005AEC2CFCEF33FFEE33FEED33FDED30E7C3
:10046A00EB020235EF2BFFEE3AFEED39FDD0E0FB51
:10047A0050130BBB000302025DED13FDEE13FEEFFA
:08048A0013FFEC13FC02023524
:100492003F8000004120000042C80000447A000072
:1004A200461C400047C35000497424004B189680F4
:1004B2004CBEBC205A0E1BCA6753C21C749DC5AEEB
:1004C200FB60065407601C23231204F0EB543860CF
:1004D200091204DC1204EB120003ECF8EDF9EEFA57
:1004E200EFCB22EB1204EB80F1543803241C90046E
:1004F20092FE93FC0EEE93FD0EEE930ECE93FF2230
:03000000020E6786
:0C0E6700787FE4F6D8FD758157020EAECE
:10050200E709F608DFFA8046E709F208DFFA803EDB
:1005120088828C83E709F0A3DFFA8032E309F608C8
:10052200DFFA8078E309F208DFFA807088828C8330
:10053200E309F0A3DFFA806489828A83E0A3F608E4
:10054200DFFA805889828A83E0A3F208DFFA804CBE
:1005520080D280FA80C680D4806980F28033801095
:1005620080A680EA809A80A880DA80E280CA8033FE
:1005720089828A83ECFAE493A3C8C582C8CCC58376
:10058200CCF0A3C8C582C8CCC583CCDFE9DEE78046
:100592000D89828A83E493A3F608DFF9ECFAA9F0C5
:1005A200EDFB2289828A83ECFAE0A3C8C582C8CC1B
:1005B200C583CCF0A3C8C582C8CCC583CCDFEADE34
:1005C200E880DB89828A83E493A3F208DFF980CC96
:1005D20088F0EF60010E4E60C388F0ED2402B4048F
:1005E2000050B9F582EB2402B4040050AF23234536
:0605F20082239005527304
:1005F800BB010689828A83E0225002E722BBFE0201
:09060800E32289828A83E4932233
:10061100BB010CE58229F582E5833AF583E022509E
:1006210006E92582F8E622BBFE06E92582F8E222E8
:0D063100E58229F582E5833AF583E4932202
:10063E00BB010689828A83F0225002F722BBFE019B
:02064E00F32295
:0E065000C3E49FFFE49EFEE49DFDE49CFC22BB
:10065E00FAE6FB0808E6F925F0F618E6CA3AF6229D
:10066E00D083D082F8E4937012740193700DA3A31B
:10067E0093F8740193F5828883E47374029368602F
:06068E00EFA3A3A380DF2F
:10104C00EFB40A07740D121057740A309811A8994E
:10105C00B8130CC2983098FDA899C298B811F63004
:07106C0099FDC299F59922DC
:100E7300020B03E493A3F8E493A34003F68001F287
:100E830008DFF48029E493A3F85407240CC8C33380
:100E9300C4540F4420C8834004F456800146F6DF4F
:100EA300E4800B010204081020408090114FE47E7F
:100EB300019360BCA3FF543F30E509541FFEE49344
:100EC300A360010ECF54C025E060A840B8E493A30B
:100ED300FAE493A3F8E493A3C8C582C8CAC583CA36
:100EE300F0A3C8C582C8CAC583CADFE9DEE780BEEE
:011157000097
:00000001FF
